:020000040800F2
:100000006006002039020008770200087902000823
:100010007B0200087D0200087F020008000000004B
:100020000000000000000000000000008102000845
:100030008302000800000000850200088702000813
:100040008902000889020008890200088902000864
:100050008902000889020008890200088902000854
:100060008902000889020008890200088902000844
:100070008902000889020008890200088902000834
:100080008902000889020008890200088902000824
:100090008902000889020008890200088902000814
:1000A0008902000889020008890200088902000804
:1000B00089020008890200088902000889020008F4
:1000C00089020008890200088902000889020008E4
:1000D00089020008890200088902000889020008D4
:1000E00089020008890200088902000889020008C4
:1000F00089020008890200088902000889020008B4
:1001000089020008890200088902000889020008A3
:100110008902000889020008890200088902000893
:100120008902000889020008890200088902000883
:100130008902000889020008890200088902000873
:100140008902000889020008890200088902000863
:100150008902000889020008890200088902000853
:100160008902000889020008890200088902000843
:1001700089020008890200088902000800000000C6
:10018000890200088902000800F002F800F044F833
:1001900014A696E8000CB244B344DA4501D100F04D
:1001A0003BF8BAE80F000FA696E83000A5EB04056F
:1001B00004EB0607AAEB0704A7F101074FEA1515A0
:1001C0004FEA3414A4F10104AC4201D300F024F846
:1001D00013F0010F18BFFB1A43F0010300F001F800
:1001E000DBE7184748020000580200007047000093
:1001F0000023002400250026103A28BF78C1FBD830
:10020000520728BF30C148BF0B6070471FB500F0D0
:10021000FFF81FBD10B510BD00F057F81146FFF7ED
:10022000F5FF00F0BFF800F075F803B4FFF7F2FF38
:1002300003BC00F07DF8000017481849184B99429C
:100240003CBF50F8042B41F8042BF8D3154B16494A
:100250004FF000028B4238BF43F8042BFAD3DFF88B
:100260004C00016841F470010160BFF34F8FBFF390
:100270006F8F0F480047FEE7FEE7FEE7FEE7FEE769
:10028000FEE7FEE7FEE7FEE7FEE7000009480A4951
:100290000A4A0B4B704700003C0400080000002095
:1002A00000000020000000206006002088ED00E033
:1002B0008901000860000020600600206002002024
:1002C00060020020704770477047754600F02CF8B8
:1002D000AE4605006946534620F00700854618B033
:1002E00020B5FFF7D3FFBDE820404FF000064FF0E8
:1002F00000074FF000084FF0000BAC46ACE8C00917
:10030000ACE8C009ACE8C009ACE8C00921F00701BD
:100310008D46704710B50446AFF300802046BDE817
:100320001040FFF782BF0000004870470000002027
:1003300001491820ABBEFEE726000200704700000E
:1003400041F24C01C4F20201086840F00500086067
:100350004FF09041086820F440600860086840F45D
:10036000806008600421C4F60001086820F02000C5
:1003700008600C21C4F60001086820F440600860A1
:1003800040F60001C4F60001086820F040600860F3
:1003900040F60C01C4F60001086820F040600860D7
:1003A0007047000080B584B0002000900390FFF7F4
:1003B000C7FF009802900190FFE740F61000C4F6D6
:1003C00000000068800400281ED4FFE70298D0B91E
:1003D000FFE701200290019880F001000190019850
:1003E00040B1FFE71421C4F60001086840F0200086
:1003F000086007E01421C4F60001086820F020001E
:100400000860FFE7FFE702E000200290FFE7D4E783
:10041000F1EE100A4FF6FF71C0F2C03120EA010080
:1004200040F04070E1EE100A704700003C04000804
:0C0430000000002060060000F001000841
:040000050800018965
:00000001FF
